{
	"data": {
		"bytecode": {
			"linkReferences": {},
			"object": "60806040526105a3806100136000396000f3fe608060405234801561001057600080fd5b50600436106100365760003560e01c806309bd5a601461003b57806376fe1e9214610059575b600080fd5b610043610075565b60405161005091906101f8565b60405180910390f35b610073600480360381019061006e919061036d565b61009c565b005b7f564ccaf7594d66b1eaaea24fe01f0585bf52ee70852af4eac0cc4b04711cd0e260001b81565b806040516020016100ad9190610427565b604051602081830303815290604052805190602001207f564ccaf7594d66b1eaaea24fe01f0585bf52ee70852af4eac0cc4b04711cd0e260001b14610127576040517f08c379a000000000000000000000000000000000000000000000000000000000815260040161011e9061049b565b60405180910390fd5b60003373ffffffffffffffffffffffffffffffffffffffff16678ac7230489e80000604051610155906104ec565b60006040518083038185875af1925050503d8060008114610192576040519150601f19603f3d011682016040523d82523d6000602084013e610197565b606091505b50509050806101db576040517f08c379a00000000000000000000000000000000000000000000000000000000081526004016101d29061054d565b60405180910390fd5b5050565b6000819050919050565b6101f2816101df565b82525050565b600060208201905061020d60008301846101e9565b92915050565b6000604051905090565b600080fd5b600080fd5b600080fd5b600080fd5b6000601f19601f8301169050919050565b7f4e487b7100000000000000000000000000000000000000000000000000000000600052604160045260246000fd5b61027a82610231565b810181811067ffffffffffffffff8211171561029957610298610242565b5b80604052505050565b60006102ac610213565b90506102b88282610271565b919050565b600067ffffffffffffffff8211156102d8576102d7610242565b5b6102e182610231565b9050602081019050919050565b82818337600083830152505050565b600061031061030b846102bd565b6102a2565b90508281526020810184848401111561032c5761032b61022c565b5b6103378482856102ee565b509392505050565b600082601f83011261035457610353610227565b5b81356103648482602086016102fd565b91505092915050565b6000602082840312156103835761038261021d565b5b600082013567ffffffffffffffff8111156103a1576103a0610222565b5b6103ad8482850161033f565b91505092915050565b600081519050919050565b600081905092915050565b60005b838110156103ea5780820151818401526020810190506103cf565b60008484015250505050565b6000610401826103b6565b61040b81856103c1565b935061041b8185602086016103cc565b80840191505092915050565b600061043382846103f6565b915081905092915050565b600082825260208201905092915050565b7f496e636f727265637420616e7377657200000000000000000000000000000000600082015250565b600061048560108361043e565b91506104908261044f565b602082019050919050565b600060208201905081810360008301526104b481610478565b9050919050565b600081905092915050565b50565b60006104d66000836104bb565b91506104e1826104c6565b600082019050919050565b60006104f7826104c9565b9150819050919050565b7f4661696c656420746f2073656e64204574686572000000000000000000000000600082015250565b600061053760148361043e565b915061054282610501565b602082019050919050565b600060208201905081810360008301526105668161052a565b905091905056fea2646970667358221220b4f77b4e3515cf8d18d0cb06224499a85eb963f8a54f233e05c9bfdfdc586c3564736f6c63430008110033",
			"opcodes": "PUSH1 0x80 PUSH1 0x40 MSTORE PUSH2 0x5A3 DUP1 PUSH2 0x13 PUSH1 0x0 CODECOPY PUSH1 0x0 RETURN INVALID PUSH1 0x80 PUSH1 0x40 MSTORE CALLVALUE DUP1 ISZERO PUSH2 0x10 JUMPI PUSH1 0x0 DUP1 REVERT JUMPDEST POP PUSH1 0x4 CALLDATASIZE LT PUSH2 0x36 JUMPI PUSH1 0x0 CALLDATALOAD PUSH1 0xE0 SHR DUP1 PUSH4 0x9BD5A60 EQ PUSH2 0x3B JUMPI DUP1 PUSH4 0x76FE1E92 EQ PUSH2 0x59 JUMPI JUMPDEST PUSH1 0x0 DUP1 REVERT JUMPDEST PUSH2 0x43 PUSH2 0x75 JUMP JUMPDEST PUSH1 0x40 MLOAD PUSH2 0x50 SWAP2 SWAP1 PUSH2 0x1F8 JUMP JUMPDEST PUSH1 0x40 MLOAD DUP1 SWAP2 SUB SWAP1 RETURN JUMPDEST PUSH2 0x73 PUSH1 0x4 DUP1 CALLDATASIZE SUB DUP2 ADD SWAP1 PUSH2 0x6E SWAP2 SWAP1 PUSH2 0x36D JUMP JUMPDEST PUSH2 0x9C JUMP JUMPDEST STOP JUMPDEST PUSH32 0x564CCAF7594D66B1EAAEA24FE01F0585BF52EE70852AF4EAC0CC4B04711CD0E2 PUSH1 0x0 SHL DUP2 JUMP JUMPDEST DUP1 PUSH1 0x40 MLOAD PUSH1 0x20 ADD PUSH2 0xAD SWAP2 SWAP1 PUSH2 0x427 JUMP JUMPDEST PUSH1 0x40 MLOAD PUSH1 0x20 DUP2 DUP4 SUB SUB DUP2 MSTORE SWAP1 PUSH1 0x40 MSTORE DUP1 MLOAD SWAP1 PUSH1 0x20 ADD KECCAK256 PUSH32 0x564CCAF7594D66B1EAAEA24FE01F0585BF52EE70852AF4EAC0CC4B04711CD0E2 PUSH1 0x0 SHL EQ PUSH2 0x127 JUMPI PUSH1 0x40 MLOAD PUSH32 0x8C379A000000000000000000000000000000000000000000000000000000000 DUP2 MSTORE PUSH1 0x4 ADD PUSH2 0x11E SWAP1 PUSH2 0x49B JUMP JUMPDEST PUSH1 0x40 MLOAD DUP1 SWAP2 SUB SWAP1 REVERT JUMPDEST PUSH1 0x0 CALLER PUSH20 0xFFFFFFFFFFFFFFFFFFFFFFFFFFFFFFFFFFFFFFFF AND PUSH8 0x8AC7230489E80000 PUSH1 0x40 MLOAD PUSH2 0x155 SWAP1 PUSH2 0x4EC JUMP JUMPDEST PUSH1 0x0 PUSH1 0x40 MLOAD DUP1 DUP4 SUB DUP2 DUP6 DUP8 GAS CALL SWAP3 POP POP POP RETURNDATASIZE DUP1 PUSH1 0x0 DUP2 EQ PUSH2 0x192 JUMPI PUSH1 0x40 MLOAD SWAP2 POP PUSH1 0x1F NOT PUSH1 0x3F RETURNDATASIZE ADD AND DUP3 ADD PUSH1 0x40 MSTORE RETURNDATASIZE DUP3 MSTORE RETURNDATASIZE PUSH1 0x0 PUSH1 0x20 DUP5 ADD RETURNDATACOPY PUSH2 0x197 JUMP JUMPDEST PUSH1 0x60 SWAP2 POP JUMPDEST POP POP SWAP1 POP DUP1 PUSH2 0x1DB JUMPI PUSH1 0x40 MLOAD PUSH32 0x8C379A000000000000000000000000000000000000000000000000000000000 DUP2 MSTORE PUSH1 0x4 ADD PUSH2 0x1D2 SWAP1 PUSH2 0x54D JUMP JUMPDEST PUSH1 0x40 MLOAD DUP1 SWAP2 SUB SWAP1 REVERT JUMPDEST POP POP JUMP JUMPDEST PUSH1 0x0 DUP2 SWAP1 POP SWAP2 SWAP1 POP JUMP JUMPDEST PUSH2 0x1F2 DUP2 PUSH2 0x1DF JUMP JUMPDEST DUP3 MSTORE POP POP JUMP JUMPDEST PUSH1 0x0 PUSH1 0x20 DUP3 ADD SWAP1 POP PUSH2 0x20D PUSH1 0x0 DUP4 ADD DUP5 PUSH2 0x1E9 JUMP JUMPDEST SWAP3 SWAP2 POP POP JUMP JUMPDEST PUSH1 0x0 PUSH1 0x40 MLOAD SWAP1 POP SWAP1 JUMP JUMPDEST PUSH1 0x0 DUP1 REVERT JUMPDEST PUSH1 0x0 DUP1 REVERT JUMPDEST PUSH1 0x0 DUP1 REVERT JUMPDEST PUSH1 0x0 DUP1 REVERT JUMPDEST PUSH1 0x0 PUSH1 0x1F NOT PUSH1 0x1F DUP4 ADD AND SWAP1 POP SWAP2 SWAP1 POP JUMP JUMPDEST PUSH32 0x4E487B7100000000000000000000000000000000000000000000000000000000 PUSH1 0x0 MSTORE PUSH1 0x41 PUSH1 0x4 MSTORE PUSH1 0x24 PUSH1 0x0 REVERT JUMPDEST PUSH2 0x27A DUP3 PUSH2 0x231 JUMP JUMPDEST DUP2 ADD DUP2 DUP2 LT PUSH8 0xFFFFFFFFFFFFFFFF DUP3 GT OR ISZERO PUSH2 0x299 JUMPI PUSH2 0x298 PUSH2 0x242 JUMP JUMPDEST JUMPDEST DUP1 PUSH1 0x40 MSTORE POP POP POP JUMP JUMPDEST PUSH1 0x0 PUSH2 0x2AC PUSH2 0x213 JUMP JUMPDEST SWAP1 POP PUSH2 0x2B8 DUP3 DUP3 PUSH2 0x271 JUMP JUMPDEST SWAP2 SWAP1 POP JUMP JUMPDEST PUSH1 0x0 PUSH8 0xFFFFFFFFFFFFFFFF DUP3 GT ISZERO PUSH2 0x2D8 JUMPI PUSH2 0x2D7 PUSH2 0x242 JUMP JUMPDEST JUMPDEST PUSH2 0x2E1 DUP3 PUSH2 0x231 JUMP JUMPDEST SWAP1 POP PUSH1 0x20 DUP2 ADD SWAP1 POP SWAP2 SWAP1 POP JUMP JUMPDEST DUP3 DUP2 DUP4 CALLDATACOPY PUSH1 0x0 DUP4 DUP4 ADD MSTORE POP POP POP JUMP JUMPDEST PUSH1 0x0 PUSH2 0x310 PUSH2 0x30B DUP5 PUSH2 0x2BD JUMP JUMPDEST PUSH2 0x2A2 JUMP JUMPDEST SWAP1 POP DUP3 DUP2 MSTORE PUSH1 0x20 DUP2 ADD DUP5 DUP5 DUP5 ADD GT ISZERO PUSH2 0x32C JUMPI PUSH2 0x32B PUSH2 0x22C JUMP JUMPDEST JUMPDEST PUSH2 0x337 DUP5 DUP3 DUP6 PUSH2 0x2EE JUMP JUMPDEST POP SWAP4 SWAP3 POP POP POP JUMP JUMPDEST PUSH1 0x0 DUP3 PUSH1 0x1F DUP4 ADD SLT PUSH2 0x354 JUMPI PUSH2 0x353 PUSH2 0x227 JUMP JUMPDEST JUMPDEST DUP2 CALLDATALOAD PUSH2 0x364 DUP5 DUP3 PUSH1 0x20 DUP7 ADD PUSH2 0x2FD JUMP JUMPDEST SWAP2 POP POP SWAP3 SWAP2 POP POP JUMP JUMPDEST PUSH1 0x0 PUSH1 0x20 DUP3 DUP5 SUB SLT ISZERO PUSH2 0x383 JUMPI PUSH2 0x382 PUSH2 0x21D JUMP JUMPDEST JUMPDEST PUSH1 0x0 DUP3 ADD CALLDATALOAD PUSH8 0xFFFFFFFFFFFFFFFF DUP2 GT ISZERO PUSH2 0x3A1 JUMPI PUSH2 0x3A0 PUSH2 0x222 JUMP JUMPDEST JUMPDEST PUSH2 0x3AD DUP5 DUP3 DUP6 ADD PUSH2 0x33F JUMP JUMPDEST SWAP2 POP POP SWAP3 SWAP2 POP POP JUMP JUMPDEST PUSH1 0x0 DUP2 MLOAD SWAP1 POP SWAP2 SWAP1 POP JUMP JUMPDEST PUSH1 0x0 DUP2 SWAP1 POP SWAP3 SWAP2 POP POP JUMP JUMPDEST PUSH1 0x0 JUMPDEST DUP4 DUP2 LT ISZERO PUSH2 0x3EA JUMPI DUP1 DUP3 ADD MLOAD DUP2 DUP5 ADD MSTORE PUSH1 0x20 DUP2 ADD SWAP1 POP PUSH2 0x3CF JUMP JUMPDEST PUSH1 0x0 DUP5 DUP5 ADD MSTORE POP POP POP POP JUMP JUMPDEST PUSH1 0x0 PUSH2 0x401 DUP3 PUSH2 0x3B6 JUMP JUMPDEST PUSH2 0x40B DUP2 DUP6 PUSH2 0x3C1 JUMP JUMPDEST SWAP4 POP PUSH2 0x41B DUP2 DUP6 PUSH1 0x20 DUP7 ADD PUSH2 0x3CC JUMP JUMPDEST DUP1 DUP5 ADD SWAP2 POP POP SWAP3 SWAP2 POP POP JUMP JUMPDEST PUSH1 0x0 PUSH2 0x433 DUP3 DUP5 PUSH2 0x3F6 JUMP JUMPDEST SWAP2 POP DUP2 SWAP1 POP SWAP3 SWAP2 POP POP JUMP JUMPDEST PUSH1 0x0 DUP3 DUP3 MSTORE PUSH1 0x20 DUP3 ADD SWAP1 POP SWAP3 SWAP2 POP POP JUMP JUMPDEST PUSH32 0x496E636F727265637420616E7377657200000000000000000000000000000000 PUSH1 0x0 DUP3 ADD MSTORE POP JUMP JUMPDEST PUSH1 0x0 PUSH2 0x485 PUSH1 0x10 DUP4 PUSH2 0x43E JUMP JUMPDEST SWAP2 POP PUSH2 0x490 DUP3 PUSH2 0x44F JUMP JUMPDEST PUSH1 0x20 DUP3 ADD SWAP1 POP SWAP2 SWAP1 POP JUMP JUMPDEST PUSH1 0x0 PUSH1 0x20 DUP3 ADD SWAP1 POP DUP2 DUP2 SUB PUSH1 0x0 DUP4 ADD MSTORE PUSH2 0x4B4 DUP2 PUSH2 0x478 JUMP JUMPDEST SWAP1 POP SWAP2 SWAP1 POP JUMP JUMPDEST PUSH1 0x0 DUP2 SWAP1 POP SWAP3 SWAP2 POP POP JUMP JUMPDEST POP JUMP JUMPDEST PUSH1 0x0 PUSH2 0x4D6 PUSH1 0x0 DUP4 PUSH2 0x4BB JUMP JUMPDEST SWAP2 POP PUSH2 0x4E1 DUP3 PUSH2 0x4C6 JUMP JUMPDEST PUSH1 0x0 DUP3 ADD SWAP1 POP SWAP2 SWAP1 POP JUMP JUMPDEST PUSH1 0x0 PUSH2 0x4F7 DUP3 PUSH2 0x4C9 JUMP JUMPDEST SWAP2 POP DUP2 SWAP1 POP SWAP2 SWAP1 POP JUMP JUMPDEST PUSH32 0x4661696C656420746F2073656E64204574686572000000000000000000000000 PUSH1 0x0 DUP3 ADD MSTORE POP JUMP JUMPDEST PUSH1 0x0 PUSH2 0x537 PUSH1 0x14 DUP4 PUSH2 0x43E JUMP JUMPDEST SWAP2 POP PUSH2 0x542 DUP3 PUSH2 0x501 JUMP JUMPDEST PUSH1 0x20 DUP3 ADD SWAP1 POP SWAP2 SWAP1 POP JUMP JUMPDEST PUSH1 0x0 PUSH1 0x20 DUP3 ADD SWAP1 POP DUP2 DUP2 SUB PUSH1 0x0 DUP4 ADD MSTORE PUSH2 0x566 DUP2 PUSH2 0x52A JUMP JUMPDEST SWAP1 POP SWAP2 SWAP1 POP JUMP INVALID LOG2 PUSH5 0x6970667358 0x22 SLT KECCAK256 0xB4 0xF7 PUSH28 0x4E3515CF8D18D0CB06224499A85EB963F8A54F233E05C9BFDFDC586C CALLDATALOAD PUSH5 0x736F6C6343 STOP ADDMOD GT STOP CALLER "
		},
		"gasEstimates": {
			"creation": {
				"codeDepositCost": "288600",
				"executionCost": "307",
				"totalCost": "288907"
			},
			"external": {
				"hash()": "313",
				"solve(string)": "infinite"
			}
		},
		"methodIdentifiers": {
			"hash()": "09bd5a60",
			"solve(string)": "76fe1e92"
		}
	},
	"abi": [
		{
			"inputs": [],
			"stateMutability": "payable",
			"type": "constructor"
		},
		{
			"inputs": [],
			"name": "hash",
			"outputs": [
				{
					"internalType": "bytes32",
					"name": "",
					"type": "bytes32"
				}
			],
			"stateMutability": "view",
			"type": "function"
		},
		{
			"inputs": [
				{
					"internalType": "string",
					"name": "solution",
					"type": "string"
				}
			],
			"name": "solve",
			"outputs": [],
			"stateMutability": "nonpayable",
			"type": "function"
		}
	]
}