{
	"data": {
		"bytecode": {
			"linkReferences": {},
			"object": "608060405234801561001057600080fd5b506103fa806100206000396000f3fe608060405234801561001057600080fd5b506004361061002b5760003560e01c8063a1f2e8aa14610030575b600080fd5b61004a6004803603810190610045919061027a565b61004c565b005b7f4e3358e5bdb38f499a83fbcd33d16343569f3b6fe53021022dede6364017b4a883838360405161007f93929190610386565b60405180910390a1505050565b6000604051905090565b600080fd5b600080fd5b600073ffffffffffffffffffffffffffffffffffffffff82169050919050565b60006100cb826100a0565b9050919050565b6100db816100c0565b81146100e657600080fd5b50565b6000813590506100f8816100d2565b92915050565b6000819050919050565b610111816100fe565b811461011c57600080fd5b50565b60008135905061012e81610108565b92915050565b600080fd5b600080fd5b6000601f19601f8301169050919050565b7f4e487b7100000000000000000000000000000000000000000000000000000000600052604160045260246000fd5b6101878261013e565b810181811067ffffffffffffffff821117156101a6576101a561014f565b5b80604052505050565b60006101b961008c565b90506101c5828261017e565b919050565b600067ffffffffffffffff8211156101e5576101e461014f565b5b6101ee8261013e565b9050602081019050919050565b82818337600083830152505050565b600061021d610218846101ca565b6101af565b90508281526020810184848401111561023957610238610139565b5b6102448482856101fb565b509392505050565b600082601f83011261026157610260610134565b5b813561027184826020860161020a565b91505092915050565b60008060006060848603121561029357610292610096565b5b60006102a1868287016100e9565b93505060206102b28682870161011f565b925050604084013567ffffffffffffffff8111156102d3576102d261009b565b5b6102df8682870161024c565b9150509250925092565b6102f2816100c0565b82525050565b610301816100fe565b82525050565b600081519050919050565b600082825260208201905092915050565b60005b83811015610341578082015181840152602081019050610326565b60008484015250505050565b600061035882610307565b6103628185610312565b9350610372818560208601610323565b61037b8161013e565b840191505092915050565b600060608201905061039b60008301866102e9565b6103a860208301856102f8565b81810360408301526103ba818461034d565b905094935050505056fea26469706673582212209d320c4db9b5bb1663e08078e7497be158c247f38f40611d2f25774c89270d8f64736f6c63430008110033",
			"opcodes": "PUSH1 0x80 PUSH1 0x40 MSTORE CALLVALUE DUP1 ISZERO PUSH2 0x10 JUMPI PUSH1 0x0 DUP1 REVERT JUMPDEST POP PUSH2 0x3FA DUP1 PUSH2 0x20 PUSH1 0x0 CODECOPY PUSH1 0x0 RETURN INVALID PUSH1 0x80 PUSH1 0x40 MSTORE CALLVALUE DUP1 ISZERO PUSH2 0x10 JUMPI PUSH1 0x0 DUP1 REVERT JUMPDEST POP PUSH1 0x4 CALLDATASIZE LT PUSH2 0x2B JUMPI PUSH1 0x0 CALLDATALOAD PUSH1 0xE0 SHR DUP1 PUSH4 0xA1F2E8AA EQ PUSH2 0x30 JUMPI JUMPDEST PUSH1 0x0 DUP1 REVERT JUMPDEST PUSH2 0x4A PUSH1 0x4 DUP1 CALLDATASIZE SUB DUP2 ADD SWAP1 PUSH2 0x45 SWAP2 SWAP1 PUSH2 0x27A JUMP JUMPDEST PUSH2 0x4C JUMP JUMPDEST STOP JUMPDEST PUSH32 0x4E3358E5BDB38F499A83FBCD33D16343569F3B6FE53021022DEDE6364017B4A8 DUP4 DUP4 DUP4 PUSH1 0x40 MLOAD PUSH2 0x7F SWAP4 SWAP3 SWAP2 SWAP1 PUSH2 0x386 JUMP JUMPDEST PUSH1 0x40 MLOAD DUP1 SWAP2 SUB SWAP1 LOG1 POP POP POP JUMP JUMPDEST PUSH1 0x0 PUSH1 0x40 MLOAD SWAP1 POP SWAP1 JUMP JUMPDEST PUSH1 0x0 DUP1 REVERT JUMPDEST PUSH1 0x0 DUP1 REVERT JUMPDEST PUSH1 0x0 PUSH20 0xFFFFFFFFFFFFFFFFFFFFFFFFFFFFFFFFFFFFFFFF DUP3 AND SWAP1 POP SWAP2 SWAP1 POP JUMP JUMPDEST PUSH1 0x0 PUSH2 0xCB DUP3 PUSH2 0xA0 JUMP JUMPDEST SWAP1 POP SWAP2 SWAP1 POP JUMP JUMPDEST PUSH2 0xDB DUP2 PUSH2 0xC0 JUMP JUMPDEST DUP2 EQ PUSH2 0xE6 JUMPI PUSH1 0x0 DUP1 REVERT JUMPDEST POP JUMP JUMPDEST PUSH1 0x0 DUP2 CALLDATALOAD SWAP1 POP PUSH2 0xF8 DUP2 PUSH2 0xD2 JUMP JUMPDEST SWAP3 SWAP2 POP POP JUMP JUMPDEST PUSH1 0x0 DUP2 SWAP1 POP SWAP2 SWAP1 POP JUMP JUMPDEST PUSH2 0x111 DUP2 PUSH2 0xFE JUMP JUMPDEST DUP2 EQ PUSH2 0x11C JUMPI PUSH1 0x0 DUP1 REVERT JUMPDEST POP JUMP JUMPDEST PUSH1 0x0 DUP2 CALLDATALOAD SWAP1 POP PUSH2 0x12E DUP2 PUSH2 0x108 JUMP JUMPDEST SWAP3 SWAP2 POP POP JUMP JUMPDEST PUSH1 0x0 DUP1 REVERT JUMPDEST PUSH1 0x0 DUP1 REVERT JUMPDEST PUSH1 0x0 PUSH1 0x1F NOT PUSH1 0x1F DUP4 ADD AND SWAP1 POP SWAP2 SWAP1 POP JUMP JUMPDEST PUSH32 0x4E487B7100000000000000000000000000000000000000000000000000000000 PUSH1 0x0 MSTORE PUSH1 0x41 PUSH1 0x4 MSTORE PUSH1 0x24 PUSH1 0x0 REVERT JUMPDEST PUSH2 0x187 DUP3 PUSH2 0x13E JUMP JUMPDEST DUP2 ADD DUP2 DUP2 LT PUSH8 0xFFFFFFFFFFFFFFFF DUP3 GT OR ISZERO PUSH2 0x1A6 JUMPI PUSH2 0x1A5 PUSH2 0x14F JUMP JUMPDEST JUMPDEST DUP1 PUSH1 0x40 MSTORE POP POP POP JUMP JUMPDEST PUSH1 0x0 PUSH2 0x1B9 PUSH2 0x8C JUMP JUMPDEST SWAP1 POP PUSH2 0x1C5 DUP3 DUP3 PUSH2 0x17E JUMP JUMPDEST SWAP2 SWAP1 POP JUMP JUMPDEST PUSH1 0x0 PUSH8 0xFFFFFFFFFFFFFFFF DUP3 GT ISZERO PUSH2 0x1E5 JUMPI PUSH2 0x1E4 PUSH2 0x14F JUMP JUMPDEST JUMPDEST PUSH2 0x1EE DUP3 PUSH2 0x13E JUMP JUMPDEST SWAP1 POP PUSH1 0x20 DUP2 ADD SWAP1 POP SWAP2 SWAP1 POP JUMP JUMPDEST DUP3 DUP2 DUP4 CALLDATACOPY PUSH1 0x0 DUP4 DUP4 ADD MSTORE POP POP POP JUMP JUMPDEST PUSH1 0x0 PUSH2 0x21D PUSH2 0x218 DUP5 PUSH2 0x1CA JUMP JUMPDEST PUSH2 0x1AF JUMP JUMPDEST SWAP1 POP DUP3 DUP2 MSTORE PUSH1 0x20 DUP2 ADD DUP5 DUP5 DUP5 ADD GT ISZERO PUSH2 0x239 JUMPI PUSH2 0x238 PUSH2 0x139 JUMP JUMPDEST JUMPDEST PUSH2 0x244 DUP5 DUP3 DUP6 PUSH2 0x1FB JUMP JUMPDEST POP SWAP4 SWAP3 POP POP POP JUMP JUMPDEST PUSH1 0x0 DUP3 PUSH1 0x1F DUP4 ADD SLT PUSH2 0x261 JUMPI PUSH2 0x260 PUSH2 0x134 JUMP JUMPDEST JUMPDEST DUP2 CALLDATALOAD PUSH2 0x271 DUP5 DUP3 PUSH1 0x20 DUP7 ADD PUSH2 0x20A JUMP JUMPDEST SWAP2 POP POP SWAP3 SWAP2 POP POP JUMP JUMPDEST PUSH1 0x0 DUP1 PUSH1 0x0 PUSH1 0x60 DUP5 DUP7 SUB SLT ISZERO PUSH2 0x293 JUMPI PUSH2 0x292 PUSH2 0x96 JUMP JUMPDEST JUMPDEST PUSH1 0x0 PUSH2 0x2A1 DUP7 DUP3 DUP8 ADD PUSH2 0xE9 JUMP JUMPDEST SWAP4 POP POP PUSH1 0x20 PUSH2 0x2B2 DUP7 DUP3 DUP8 ADD PUSH2 0x11F JUMP JUMPDEST SWAP3 POP POP PUSH1 0x40 DUP5 ADD CALLDATALOAD PUSH8 0xFFFFFFFFFFFFFFFF DUP2 GT ISZERO PUSH2 0x2D3 JUMPI PUSH2 0x2D2 PUSH2 0x9B JUMP JUMPDEST JUMPDEST PUSH2 0x2DF DUP7 DUP3 DUP8 ADD PUSH2 0x24C JUMP JUMPDEST SWAP2 POP POP SWAP3 POP SWAP3 POP SWAP3 JUMP JUMPDEST PUSH2 0x2F2 DUP2 PUSH2 0xC0 JUMP JUMPDEST DUP3 MSTORE POP POP JUMP JUMPDEST PUSH2 0x301 DUP2 PUSH2 0xFE JUMP JUMPDEST DUP3 MSTORE POP POP JUMP JUMPDEST PUSH1 0x0 DUP2 MLOAD SWAP1 POP SWAP2 SWAP1 POP JUMP JUMPDEST PUSH1 0x0 DUP3 DUP3 MSTORE PUSH1 0x20 DUP3 ADD SWAP1 POP SWAP3 SWAP2 POP POP JUMP JUMPDEST PUSH1 0x0 JUMPDEST DUP4 DUP2 LT ISZERO PUSH2 0x341 JUMPI DUP1 DUP3 ADD MLOAD DUP2 DUP5 ADD MSTORE PUSH1 0x20 DUP2 ADD SWAP1 POP PUSH2 0x326 JUMP JUMPDEST PUSH1 0x0 DUP5 DUP5 ADD MSTORE POP POP POP POP JUMP JUMPDEST PUSH1 0x0 PUSH2 0x358 DUP3 PUSH2 0x307 JUMP JUMPDEST PUSH2 0x362 DUP2 DUP6 PUSH2 0x312 JUMP JUMPDEST SWAP4 POP PUSH2 0x372 DUP2 DUP6 PUSH1 0x20 DUP7 ADD PUSH2 0x323 JUMP JUMPDEST PUSH2 0x37B DUP2 PUSH2 0x13E JUMP JUMPDEST DUP5 ADD SWAP2 POP POP SWAP3 SWAP2 POP POP JUMP JUMPDEST PUSH1 0x0 PUSH1 0x60 DUP3 ADD SWAP1 POP PUSH2 0x39B PUSH1 0x0 DUP4 ADD DUP7 PUSH2 0x2E9 JUMP JUMPDEST PUSH2 0x3A8 PUSH1 0x20 DUP4 ADD DUP6 PUSH2 0x2F8 JUMP JUMPDEST DUP2 DUP2 SUB PUSH1 0x40 DUP4 ADD MSTORE PUSH2 0x3BA DUP2 DUP5 PUSH2 0x34D JUMP JUMPDEST SWAP1 POP SWAP5 SWAP4 POP POP POP POP JUMP INVALID LOG2 PUSH5 0x6970667358 0x22 SLT KECCAK256 SWAP14 ORIGIN 0xC 0x4D 0xB9 0xB5 0xBB AND PUSH4 0xE08078E7 0x49 PUSH28 0xE158C247F38F40611D2F25774C89270D8F64736F6C63430008110033 "
		},
		"gasEstimates": {
			"creation": {
				"codeDepositCost": "203600",
				"executionCost": "245",
				"totalCost": "203845"
			},
			"external": {
				"log(address,uint256,string)": "infinite"
			}
		},
		"methodIdentifiers": {
			"log(address,uint256,string)": "a1f2e8aa"
		}
	},
	"abi": [
		{
			"anonymous": false,
			"inputs": [
				{
					"indexed": false,
					"internalType": "address",
					"name": "caller",
					"type": "address"
				},
				{
					"indexed": false,
					"internalType": "uint256",
					"name": "amount",
					"type": "uint256"
				},
				{
					"indexed": false,
					"internalType": "string",
					"name": "action",
					"type": "string"
				}
			],
			"name": "Log",
			"type": "event"
		},
		{
			"inputs": [
				{
					"internalType": "address",
					"name": "_caller",
					"type": "address"
				},
				{
					"internalType": "uint256",
					"name": "_amount",
					"type": "uint256"
				},
				{
					"internalType": "string",
					"name": "_action",
					"type": "string"
				}
			],
			"name": "log",
			"outputs": [],
			"stateMutability": "nonpayable",
			"type": "function"
		}
	]
}