{
	"data": {
		"bytecode": {
			"linkReferences": {},
			"object": "608060405260405162001450380380620014508339818101604052810190620000299190620002bc565b8060009060026200003c92919062000044565b5050620002ee565b8260028101928215620000b3579160200282015b82811115620000b25782518260006101000a81548173ffffffffffffffffffffffffffffffffffffffff021916908373ffffffffffffffffffffffffffffffffffffffff1602179055509160200191906001019062000058565b5b509050620000c29190620000c6565b5090565b5b80821115620000e1576000816000905550600101620000c7565b5090565b6000604051905090565b600080fd5b600080fd5b6000601f19601f8301169050919050565b7f4e487b7100000000000000000000000000000000000000000000000000000000600052604160045260246000fd5b6200014482620000f9565b810181811067ffffffffffffffff821117156200016657620001656200010a565b5b80604052505050565b60006200017b620000e5565b905062000189828262000139565b919050565b600067ffffffffffffffff821115620001ac57620001ab6200010a565b5b602082029050919050565b600080fd5b600073ffffffffffffffffffffffffffffffffffffffff82169050919050565b6000620001e982620001bc565b9050919050565b620001fb81620001dc565b81146200020757600080fd5b50565b6000815190506200021b81620001f0565b92915050565b60006200023862000232846200018e565b6200016f565b90508060208402830185811115620002555762000254620001b7565b5b835b818110156200028257806200026d88826200020a565b84526020840193505060208101905062000257565b5050509392505050565b600082601f830112620002a457620002a3620000f4565b5b6002620002b384828562000221565b91505092915050565b600060408284031215620002d557620002d4620000ef565b5b6000620002e5848285016200028c565b91505092915050565b61115280620002fe6000396000f3fe60806040526004361061003f5760003560e01c8063025e7c27146100445780639a4b740b14610081578063d0e30db0146100be578063ffb485b8146100c8575b600080fd5b34801561005057600080fd5b5061006b600480360381019061006691906107a2565b6100f1565b6040516100789190610810565b60405180910390f35b34801561008d57600080fd5b506100a860048036038101906100a39190610857565b610127565b6040516100b591906108b0565b60405180910390f35b6100c661015a565b005b3480156100d457600080fd5b506100ef60048036038101906100ea9190610ae5565b61015c565b005b6000816002811061010157600080fd5b016000915054906101000a900473ffffffffffffffffffffffffffffffffffffffff1681565b6000828260405160200161013c929190610bbd565b60405160208183030381529060405280519060200120905092915050565b565b60006101688484610127565b90506101748282610266565b6101b3576040517f08c379a00000000000000000000000000000000000000000000000000000000081526004016101aa90610c46565b60405180910390fd5b60008473ffffffffffffffffffffffffffffffffffffffff16846040516101d990610c97565b60006040518083038185875af1925050503d8060008114610216576040519150601f19603f3d011682016040523d82523d6000602084013e61021b565b606091505b505090508061025f576040517f08c379a000000000000000000000000000000000000000000000000000000000815260040161025690610cf8565b60405180910390fd5b5050505050565b60008061027283610349565b905060005b600281101561033c5760006102ac86836002811061029857610297610d18565b5b60200201518461037990919063ffffffff16565b905060008083600281106102c3576102c2610d18565b5b0160009054906101000a900473ffffffffffffffffffffffffffffffffffffffff1673ffffffffffffffffffffffffffffffffffffffff168273ffffffffffffffffffffffffffffffffffffffff1614905080610327576000945050505050610343565b5050808061033490610d76565b915050610277565b5060019150505b92915050565b60008160405160200161035c9190610e36565b604051602081830303815290604052805190602001209050919050565b600080600061038885856103a0565b9150915061039581610421565b819250505092915050565b60008060418351036103e15760008060006020860151925060408601519150606086015160001a90506103d5878285856105ed565b9450945050505061041a565b60408351036104115760008060208501519150604085015190506104068683836106f9565b93509350505061041a565b60006002915091505b9250929050565b6000600481111561043557610434610e5c565b5b81600481111561044857610447610e5c565b5b03156105ea576001600481111561046257610461610e5c565b5b81600481111561047557610474610e5c565b5b036104b5576040517f08c379a00000000000000000000000000000000000000000000000000000000081526004016104ac90610ed7565b60405180910390fd5b600260048111156104c9576104c8610e5c565b5b8160048111156104dc576104db610e5c565b5b0361051c576040517f08c379a000000000000000000000000000000000000000000000000000000000815260040161051390610f43565b60405180910390fd5b600360048111156105305761052f610e5c565b5b81600481111561054357610542610e5c565b5b03610583576040517f08c379a000000000000000000000000000000000000000000000000000000000815260040161057a90610fd5565b60405180910390fd5b60048081111561059657610595610e5c565b5b8160048111156105a9576105a8610e5c565b5b036105e9576040517f08c379a00000000000000000000000000000000000000000000000000000000081526004016105e090611067565b60405180910390fd5b5b50565b6000807f7fffffffffffffffffffffffffffffff5d576e7357a4501ddfe92f46681b20a08360001c11156106285760006003915091506106f0565b601b8560ff16141580156106405750601c8560ff1614155b156106525760006004915091506106f0565b60006001878787876040516000815260200160405260405161067794939291906110a3565b6020604051602081039080840390855afa158015610699573d6000803e3d6000fd5b505050602060405103519050600073ffffffffffffffffffffffffffffffffffffffff168173ffffffffffffffffffffffffffffffffffffffff16036106e7576000600192509250506106f0565b80600092509250505b94509492505050565b60008060007f7fffffffffffffffffffffffffffffffffffffffffffffffffffffffffffffff60001b841690506000601b60ff8660001c901c61073c91906110e8565b905061074a878288856105ed565b935093505050935093915050565b6000604051905090565b600080fd5b600080fd5b6000819050919050565b61077f8161076c565b811461078a57600080fd5b50565b60008135905061079c81610776565b92915050565b6000602082840312156107b8576107b7610762565b5b60006107c68482850161078d565b91505092915050565b600073ffffffffffffffffffffffffffffffffffffffff82169050919050565b60006107fa826107cf565b9050919050565b61080a816107ef565b82525050565b60006020820190506108256000830184610801565b92915050565b610834816107ef565b811461083f57600080fd5b50565b6000813590506108518161082b565b92915050565b6000806040838503121561086e5761086d610762565b5b600061087c85828601610842565b925050602061088d8582860161078d565b9150509250929050565b6000819050919050565b6108aa81610897565b82525050565b60006020820190506108c560008301846108a1565b92915050565b600080fd5b6000601f19601f8301169050919050565b7f4e487b7100000000000000000000000000000000000000000000000000000000600052604160045260246000fd5b610919826108d0565b810181811067ffffffffffffffff82111715610938576109376108e1565b5b80604052505050565b600061094b610758565b90506109578282610910565b919050565b600067ffffffffffffffff821115610977576109766108e1565b5b602082029050919050565b600080fd5b600080fd5b600067ffffffffffffffff8211156109a7576109a66108e1565b5b6109b0826108d0565b9050602081019050919050565b82818337600083830152505050565b60006109df6109da8461098c565b610941565b9050828152602081018484840111156109fb576109fa610987565b5b610a068482856109bd565b509392505050565b600082601f830112610a2357610a226108cb565b5b8135610a338482602086016109cc565b91505092915050565b6000610a4f610a4a8461095c565b610941565b90508060208402830185811115610a6957610a68610982565b5b835b81811015610ab057803567ffffffffffffffff811115610a8e57610a8d6108cb565b5b808601610a9b8982610a0e565b85526020850194505050602081019050610a6b565b5050509392505050565b600082601f830112610acf57610ace6108cb565b5b6002610adc848285610a3c565b91505092915050565b600080600060608486031215610afe57610afd610762565b5b6000610b0c86828701610842565b9350506020610b1d8682870161078d565b925050604084013567ffffffffffffffff811115610b3e57610b3d610767565b5b610b4a86828701610aba565b9150509250925092565b60008160601b9050919050565b6000610b6c82610b54565b9050919050565b6000610b7e82610b61565b9050919050565b610b96610b91826107ef565b610b73565b82525050565b6000819050919050565b610bb7610bb28261076c565b610b9c565b82525050565b6000610bc98285610b85565b601482019150610bd98284610ba6565b6020820191508190509392505050565b600082825260208201905092915050565b7f696e76616c696420736967000000000000000000000000000000000000000000600082015250565b6000610c30600b83610be9565b9150610c3b82610bfa565b602082019050919050565b60006020820190508181036000830152610c5f81610c23565b9050919050565b600081905092915050565b50565b6000610c81600083610c66565b9150610c8c82610c71565b600082019050919050565b6000610ca282610c74565b9150819050919050565b7f4661696c656420746f2073656e64204574686572000000000000000000000000600082015250565b6000610ce2601483610be9565b9150610ced82610cac565b602082019050919050565b60006020820190508181036000830152610d1181610cd5565b9050919050565b7f4e487b7100000000000000000000000000000000000000000000000000000000600052603260045260246000fd5b7f4e487b7100000000000000000000000000000000000000000000000000000000600052601160045260246000fd5b6000610d818261076c565b91507fffffffffffffffffffffffffffffffffffffffffffffffffffffffffffffffff8203610db357610db2610d47565b5b600182019050919050565b600081905092915050565b7f19457468657265756d205369676e6564204d6573736167653a0a333200000000600082015250565b6000610dff601c83610dbe565b9150610e0a82610dc9565b601c82019050919050565b6000819050919050565b610e30610e2b82610897565b610e15565b82525050565b6000610e4182610df2565b9150610e4d8284610e1f565b60208201915081905092915050565b7f4e487b7100000000000000000000000000000000000000000000000000000000600052602160045260246000fd5b7f45434453413a20696e76616c6964207369676e61747572650000000000000000600082015250565b6000610ec1601883610be9565b9150610ecc82610e8b565b602082019050919050565b60006020820190508181036000830152610ef081610eb4565b9050919050565b7f45434453413a20696e76616c6964207369676e6174757265206c656e67746800600082015250565b6000610f2d601f83610be9565b9150610f3882610ef7565b602082019050919050565b60006020820190508181036000830152610f5c81610f20565b9050919050565b7f45434453413a20696e76616c6964207369676e6174757265202773272076616c60008201527f7565000000000000000000000000000000000000000000000000000000000000602082015250565b6000610fbf602283610be9565b9150610fca82610f63565b604082019050919050565b60006020820190508181036000830152610fee81610fb2565b9050919050565b7f45434453413a20696e76616c6964207369676e6174757265202776272076616c60008201527f7565000000000000000000000000000000000000000000000000000000000000602082015250565b6000611051602283610be9565b915061105c82610ff5565b604082019050919050565b6000602082019050818103600083015261108081611044565b9050919050565b600060ff82169050919050565b61109d81611087565b82525050565b60006080820190506110b860008301876108a1565b6110c56020830186611094565b6110d260408301856108a1565b6110df60608301846108a1565b95945050505050565b60006110f38261076c565b91506110fe8361076c565b925082820190508082111561111657611115610d47565b5b9291505056fea2646970667358221220cf792aa66877cb3622dc58afa61899e78b0030799b4c8b86c6357fd03d27db9e64736f6c63430008110033",
			"opcodes": "PUSH1 0x80 PUSH1 0x40 MSTORE PUSH1 0x40 MLOAD PUSH3 0x1450 CODESIZE SUB DUP1 PUSH3 0x1450 DUP4 CODECOPY DUP2 DUP2 ADD PUSH1 0x40 MSTORE DUP2 ADD SWAP1 PUSH3 0x29 SWAP2 SWAP1 PUSH3 0x2BC JUMP JUMPDEST DUP1 PUSH1 0x0 SWAP1 PUSH1 0x2 PUSH3 0x3C SWAP3 SWAP2 SWAP1 PUSH3 0x44 JUMP JUMPDEST POP POP PUSH3 0x2EE JUMP JUMPDEST DUP3 PUSH1 0x2 DUP2 ADD SWAP3 DUP3 ISZERO PUSH3 0xB3 JUMPI SWAP2 PUSH1 0x20 MUL DUP3 ADD JUMPDEST DUP3 DUP2 GT ISZERO PUSH3 0xB2 JUMPI DUP3 MLOAD DUP3 PUSH1 0x0 PUSH2 0x100 EXP DUP2 SLOAD DUP2 PUSH20 0xFFFFFFFFFFFFFFFFFFFFFFFFFFFFFFFFFFFFFFFF MUL NOT AND SWAP1 DUP4 PUSH20 0xFFFFFFFFFFFFFFFFFFFFFFFFFFFFFFFFFFFFFFFF AND MUL OR SWAP1 SSTORE POP SWAP2 PUSH1 0x20 ADD SWAP2 SWAP1 PUSH1 0x1 ADD SWAP1 PUSH3 0x58 JUMP JUMPDEST JUMPDEST POP SWAP1 POP PUSH3 0xC2 SWAP2 SWAP1 PUSH3 0xC6 JUMP JUMPDEST POP SWAP1 JUMP JUMPDEST JUMPDEST DUP1 DUP3 GT ISZERO PUSH3 0xE1 JUMPI PUSH1 0x0 DUP2 PUSH1 0x0 SWAP1 SSTORE POP PUSH1 0x1 ADD PUSH3 0xC7 JUMP JUMPDEST POP SWAP1 JUMP JUMPDEST PUSH1 0x0 PUSH1 0x40 MLOAD SWAP1 POP SWAP1 JUMP JUMPDEST PUSH1 0x0 DUP1 REVERT JUMPDEST PUSH1 0x0 DUP1 REVERT JUMPDEST PUSH1 0x0 PUSH1 0x1F NOT PUSH1 0x1F DUP4 ADD AND SWAP1 POP SWAP2 SWAP1 POP JUMP JUMPDEST PUSH32 0x4E487B7100000000000000000000000000000000000000000000000000000000 PUSH1 0x0 MSTORE PUSH1 0x41 PUSH1 0x4 MSTORE PUSH1 0x24 PUSH1 0x0 REVERT JUMPDEST PUSH3 0x144 DUP3 PUSH3 0xF9 JUMP JUMPDEST DUP2 ADD DUP2 DUP2 LT PUSH8 0xFFFFFFFFFFFFFFFF DUP3 GT OR ISZERO PUSH3 0x166 JUMPI PUSH3 0x165 PUSH3 0x10A JUMP JUMPDEST JUMPDEST DUP1 PUSH1 0x40 MSTORE POP POP POP JUMP JUMPDEST PUSH1 0x0 PUSH3 0x17B PUSH3 0xE5 JUMP JUMPDEST SWAP1 POP PUSH3 0x189 DUP3 DUP3 PUSH3 0x139 JUMP JUMPDEST SWAP2 SWAP1 POP JUMP JUMPDEST PUSH1 0x0 PUSH8 0xFFFFFFFFFFFFFFFF DUP3 GT ISZERO PUSH3 0x1AC JUMPI PUSH3 0x1AB PUSH3 0x10A JUMP JUMPDEST JUMPDEST PUSH1 0x20 DUP3 MUL SWAP1 POP SWAP2 SWAP1 POP JUMP JUMPDEST PUSH1 0x0 DUP1 REVERT JUMPDEST PUSH1 0x0 PUSH20 0xFFFFFFFFFFFFFFFFFFFFFFFFFFFFFFFFFFFFFFFF DUP3 AND SWAP1 POP SWAP2 SWAP1 POP JUMP JUMPDEST PUSH1 0x0 PUSH3 0x1E9 DUP3 PUSH3 0x1BC JUMP JUMPDEST SWAP1 POP SWAP2 SWAP1 POP JUMP JUMPDEST PUSH3 0x1FB DUP2 PUSH3 0x1DC JUMP JUMPDEST DUP2 EQ PUSH3 0x207 JUMPI PUSH1 0x0 DUP1 REVERT JUMPDEST POP JUMP JUMPDEST PUSH1 0x0 DUP2 MLOAD SWAP1 POP PUSH3 0x21B DUP2 PUSH3 0x1F0 JUMP JUMPDEST SWAP3 SWAP2 POP POP JUMP JUMPDEST PUSH1 0x0 PUSH3 0x238 PUSH3 0x232 DUP5 PUSH3 0x18E JUMP JUMPDEST PUSH3 0x16F JUMP JUMPDEST SWAP1 POP DUP1 PUSH1 0x20 DUP5 MUL DUP4 ADD DUP6 DUP2 GT ISZERO PUSH3 0x255 JUMPI PUSH3 0x254 PUSH3 0x1B7 JUMP JUMPDEST JUMPDEST DUP4 JUMPDEST DUP2 DUP2 LT ISZERO PUSH3 0x282 JUMPI DUP1 PUSH3 0x26D DUP9 DUP3 PUSH3 0x20A JUMP JUMPDEST DUP5 MSTORE PUSH1 0x20 DUP5 ADD SWAP4 POP POP PUSH1 0x20 DUP2 ADD SWAP1 POP PUSH3 0x257 JUMP JUMPDEST POP POP POP SWAP4 SWAP3 POP POP POP JUMP JUMPDEST PUSH1 0x0 DUP3 PUSH1 0x1F DUP4 ADD SLT PUSH3 0x2A4 JUMPI PUSH3 0x2A3 PUSH3 0xF4 JUMP JUMPDEST JUMPDEST PUSH1 0x2 PUSH3 0x2B3 DUP5 DUP3 DUP6 PUSH3 0x221 JUMP JUMPDEST SWAP2 POP POP SWAP3 SWAP2 POP POP JUMP JUMPDEST PUSH1 0x0 PUSH1 0x40 DUP3 DUP5 SUB SLT ISZERO PUSH3 0x2D5 JUMPI PUSH3 0x2D4 PUSH3 0xEF JUMP JUMPDEST JUMPDEST PUSH1 0x0 PUSH3 0x2E5 DUP5 DUP3 DUP6 ADD PUSH3 0x28C JUMP JUMPDEST SWAP2 POP POP SWAP3 SWAP2 POP POP JUMP JUMPDEST PUSH2 0x1152 DUP1 PUSH3 0x2FE PUSH1 0x0 CODECOPY PUSH1 0x0 RETURN INVALID PUSH1 0x80 PUSH1 0x40 MSTORE PUSH1 0x4 CALLDATASIZE LT PUSH2 0x3F JUMPI PUSH1 0x0 CALLDATALOAD PUSH1 0xE0 SHR DUP1 PUSH4 0x25E7C27 EQ PUSH2 0x44 JUMPI DUP1 PUSH4 0x9A4B740B EQ PUSH2 0x81 JUMPI DUP1 PUSH4 0xD0E30DB0 EQ PUSH2 0xBE JUMPI DUP1 PUSH4 0xFFB485B8 EQ PUSH2 0xC8 JUMPI JUMPDEST PUSH1 0x0 DUP1 REVERT JUMPDEST CALLVALUE DUP1 ISZERO PUSH2 0x50 JUMPI PUSH1 0x0 DUP1 REVERT JUMPDEST POP PUSH2 0x6B PUSH1 0x4 DUP1 CALLDATASIZE SUB DUP2 ADD SWAP1 PUSH2 0x66 SWAP2 SWAP1 PUSH2 0x7A2 JUMP JUMPDEST PUSH2 0xF1 JUMP JUMPDEST PUSH1 0x40 MLOAD PUSH2 0x78 SWAP2 SWAP1 PUSH2 0x810 JUMP JUMPDEST PUSH1 0x40 MLOAD DUP1 SWAP2 SUB SWAP1 RETURN JUMPDEST CALLVALUE DUP1 ISZERO PUSH2 0x8D JUMPI PUSH1 0x0 DUP1 REVERT JUMPDEST POP PUSH2 0xA8 PUSH1 0x4 DUP1 CALLDATASIZE SUB DUP2 ADD SWAP1 PUSH2 0xA3 SWAP2 SWAP1 PUSH2 0x857 JUMP JUMPDEST PUSH2 0x127 JUMP JUMPDEST PUSH1 0x40 MLOAD PUSH2 0xB5 SWAP2 SWAP1 PUSH2 0x8B0 JUMP JUMPDEST PUSH1 0x40 MLOAD DUP1 SWAP2 SUB SWAP1 RETURN JUMPDEST PUSH2 0xC6 PUSH2 0x15A JUMP JUMPDEST STOP JUMPDEST CALLVALUE DUP1 ISZERO PUSH2 0xD4 JUMPI PUSH1 0x0 DUP1 REVERT JUMPDEST POP PUSH2 0xEF PUSH1 0x4 DUP1 CALLDATASIZE SUB DUP2 ADD SWAP1 PUSH2 0xEA SWAP2 SWAP1 PUSH2 0xAE5 JUMP JUMPDEST PUSH2 0x15C JUMP JUMPDEST STOP JUMPDEST PUSH1 0x0 DUP2 PUSH1 0x2 DUP2 LT PUSH2 0x101 JUMPI PUSH1 0x0 DUP1 REVERT JUMPDEST ADD PUSH1 0x0 SWAP2 POP SLOAD SWAP1 PUSH2 0x100 EXP SWAP1 DIV PUSH20 0xFFFFFFFFFFFFFFFFFFFFFFFFFFFFFFFFFFFFFFFF AND DUP2 JUMP JUMPDEST PUSH1 0x0 DUP3 DUP3 PUSH1 0x40 MLOAD PUSH1 0x20 ADD PUSH2 0x13C SWAP3 SWAP2 SWAP1 PUSH2 0xBBD JUMP JUMPDEST PUSH1 0x40 MLOAD PUSH1 0x20 DUP2 DUP4 SUB SUB DUP2 MSTORE SWAP1 PUSH1 0x40 MSTORE DUP1 MLOAD SWAP1 PUSH1 0x20 ADD KECCAK256 SWAP1 POP SWAP3 SWAP2 POP POP JUMP JUMPDEST JUMP JUMPDEST PUSH1 0x0 PUSH2 0x168 DUP5 DUP5 PUSH2 0x127 JUMP JUMPDEST SWAP1 POP PUSH2 0x174 DUP3 DUP3 PUSH2 0x266 JUMP JUMPDEST PUSH2 0x1B3 JUMPI PUSH1 0x40 MLOAD PUSH32 0x8C379A000000000000000000000000000000000000000000000000000000000 DUP2 MSTORE PUSH1 0x4 ADD PUSH2 0x1AA SWAP1 PUSH2 0xC46 JUMP JUMPDEST PUSH1 0x40 MLOAD DUP1 SWAP2 SUB SWAP1 REVERT JUMPDEST PUSH1 0x0 DUP5 PUSH20 0xFFFFFFFFFFFFFFFFFFFFFFFFFFFFFFFFFFFFFFFF AND DUP5 PUSH1 0x40 MLOAD PUSH2 0x1D9 SWAP1 PUSH2 0xC97 JUMP JUMPDEST PUSH1 0x0 PUSH1 0x40 MLOAD DUP1 DUP4 SUB DUP2 DUP6 DUP8 GAS CALL SWAP3 POP POP POP RETURNDATASIZE DUP1 PUSH1 0x0 DUP2 EQ PUSH2 0x216 JUMPI PUSH1 0x40 MLOAD SWAP2 POP PUSH1 0x1F NOT PUSH1 0x3F RETURNDATASIZE ADD AND DUP3 ADD PUSH1 0x40 MSTORE RETURNDATASIZE DUP3 MSTORE RETURNDATASIZE PUSH1 0x0 PUSH1 0x20 DUP5 ADD RETURNDATACOPY PUSH2 0x21B JUMP JUMPDEST PUSH1 0x60 SWAP2 POP JUMPDEST POP POP SWAP1 POP DUP1 PUSH2 0x25F JUMPI PUSH1 0x40 MLOAD PUSH32 0x8C379A000000000000000000000000000000000000000000000000000000000 DUP2 MSTORE PUSH1 0x4 ADD PUSH2 0x256 SWAP1 PUSH2 0xCF8 JUMP JUMPDEST PUSH1 0x40 MLOAD DUP1 SWAP2 SUB SWAP1 REVERT JUMPDEST POP POP POP POP POP JUMP JUMPDEST PUSH1 0x0 DUP1 PUSH2 0x272 DUP4 PUSH2 0x349 JUMP JUMPDEST SWAP1 POP PUSH1 0x0 JUMPDEST PUSH1 0x2 DUP2 LT ISZERO PUSH2 0x33C JUMPI PUSH1 0x0 PUSH2 0x2AC DUP7 DUP4 PUSH1 0x2 DUP2 LT PUSH2 0x298 JUMPI PUSH2 0x297 PUSH2 0xD18 JUMP JUMPDEST JUMPDEST PUSH1 0x20 MUL ADD MLOAD DUP5 PUSH2 0x379 SWAP1 SWAP2 SWAP1 PUSH4 0xFFFFFFFF AND JUMP JUMPDEST SWAP1 POP PUSH1 0x0 DUP1 DUP4 PUSH1 0x2 DUP2 LT PUSH2 0x2C3 JUMPI PUSH2 0x2C2 PUSH2 0xD18 JUMP JUMPDEST JUMPDEST ADD PUSH1 0x0 SWAP1 SLOAD SWAP1 PUSH2 0x100 EXP SWAP1 DIV PUSH20 0xFFFFFFFFFFFFFFFFFFFFFFFFFFFFFFFFFFFFFFFF AND PUSH20 0xFFFFFFFFFFFFFFFFFFFFFFFFFFFFFFFFFFFFFFFF AND DUP3 PUSH20 0xFFFFFFFFFFFFFFFFFFFFFFFFFFFFFFFFFFFFFFFF AND EQ SWAP1 POP DUP1 PUSH2 0x327 JUMPI PUSH1 0x0 SWAP5 POP POP POP POP POP PUSH2 0x343 JUMP JUMPDEST POP POP DUP1 DUP1 PUSH2 0x334 SWAP1 PUSH2 0xD76 JUMP JUMPDEST SWAP2 POP POP PUSH2 0x277 JUMP JUMPDEST POP PUSH1 0x1 SWAP2 POP POP JUMPDEST SWAP3 SWAP2 POP POP JUMP JUMPDEST PUSH1 0x0 DUP2 PUSH1 0x40 MLOAD PUSH1 0x20 ADD PUSH2 0x35C SWAP2 SWAP1 PUSH2 0xE36 JUMP JUMPDEST PUSH1 0x40 MLOAD PUSH1 0x20 DUP2 DUP4 SUB SUB DUP2 MSTORE SWAP1 PUSH1 0x40 MSTORE DUP1 MLOAD SWAP1 PUSH1 0x20 ADD KECCAK256 SWAP1 POP SWAP2 SWAP1 POP JUMP JUMPDEST PUSH1 0x0 DUP1 PUSH1 0x0 PUSH2 0x388 DUP6 DUP6 PUSH2 0x3A0 JUMP JUMPDEST SWAP2 POP SWAP2 POP PUSH2 0x395 DUP2 PUSH2 0x421 JUMP JUMPDEST DUP2 SWAP3 POP POP POP SWAP3 SWAP2 POP POP JUMP JUMPDEST PUSH1 0x0 DUP1 PUSH1 0x41 DUP4 MLOAD SUB PUSH2 0x3E1 JUMPI PUSH1 0x0 DUP1 PUSH1 0x0 PUSH1 0x20 DUP7 ADD MLOAD SWAP3 POP PUSH1 0x40 DUP7 ADD MLOAD SWAP2 POP PUSH1 0x60 DUP7 ADD MLOAD PUSH1 0x0 BYTE SWAP1 POP PUSH2 0x3D5 DUP8 DUP3 DUP6 DUP6 PUSH2 0x5ED JUMP JUMPDEST SWAP5 POP SWAP5 POP POP POP POP PUSH2 0x41A JUMP JUMPDEST PUSH1 0x40 DUP4 MLOAD SUB PUSH2 0x411 JUMPI PUSH1 0x0 DUP1 PUSH1 0x20 DUP6 ADD MLOAD SWAP2 POP PUSH1 0x40 DUP6 ADD MLOAD SWAP1 POP PUSH2 0x406 DUP7 DUP4 DUP4 PUSH2 0x6F9 JUMP JUMPDEST SWAP4 POP SWAP4 POP POP POP PUSH2 0x41A JUMP JUMPDEST PUSH1 0x0 PUSH1 0x2 SWAP2 POP SWAP2 POP JUMPDEST SWAP3 POP SWAP3 SWAP1 POP JUMP JUMPDEST PUSH1 0x0 PUSH1 0x4 DUP2 GT ISZERO PUSH2 0x435 JUMPI PUSH2 0x434 PUSH2 0xE5C JUMP JUMPDEST JUMPDEST DUP2 PUSH1 0x4 DUP2 GT ISZERO PUSH2 0x448 JUMPI PUSH2 0x447 PUSH2 0xE5C JUMP JUMPDEST JUMPDEST SUB ISZERO PUSH2 0x5EA JUMPI PUSH1 0x1 PUSH1 0x4 DUP2 GT ISZERO PUSH2 0x462 JUMPI PUSH2 0x461 PUSH2 0xE5C JUMP JUMPDEST JUMPDEST DUP2 PUSH1 0x4 DUP2 GT ISZERO PUSH2 0x475 JUMPI PUSH2 0x474 PUSH2 0xE5C JUMP JUMPDEST JUMPDEST SUB PUSH2 0x4B5 JUMPI PUSH1 0x40 MLOAD PUSH32 0x8C379A000000000000000000000000000000000000000000000000000000000 DUP2 MSTORE PUSH1 0x4 ADD PUSH2 0x4AC SWAP1 PUSH2 0xED7 JUMP JUMPDEST PUSH1 0x40 MLOAD DUP1 SWAP2 SUB SWAP1 REVERT JUMPDEST PUSH1 0x2 PUSH1 0x4 DUP2 GT ISZERO PUSH2 0x4C9 JUMPI PUSH2 0x4C8 PUSH2 0xE5C JUMP JUMPDEST JUMPDEST DUP2 PUSH1 0x4 DUP2 GT ISZERO PUSH2 0x4DC JUMPI PUSH2 0x4DB PUSH2 0xE5C JUMP JUMPDEST JUMPDEST SUB PUSH2 0x51C JUMPI PUSH1 0x40 MLOAD PUSH32 0x8C379A000000000000000000000000000000000000000000000000000000000 DUP2 MSTORE PUSH1 0x4 ADD PUSH2 0x513 SWAP1 PUSH2 0xF43 JUMP JUMPDEST PUSH1 0x40 MLOAD DUP1 SWAP2 SUB SWAP1 REVERT JUMPDEST PUSH1 0x3 PUSH1 0x4 DUP2 GT ISZERO PUSH2 0x530 JUMPI PUSH2 0x52F PUSH2 0xE5C JUMP JUMPDEST JUMPDEST DUP2 PUSH1 0x4 DUP2 GT ISZERO PUSH2 0x543 JUMPI PUSH2 0x542 PUSH2 0xE5C JUMP JUMPDEST JUMPDEST SUB PUSH2 0x583 JUMPI PUSH1 0x40 MLOAD PUSH32 0x8C379A000000000000000000000000000000000000000000000000000000000 DUP2 MSTORE PUSH1 0x4 ADD PUSH2 0x57A SWAP1 PUSH2 0xFD5 JUMP JUMPDEST PUSH1 0x40 MLOAD DUP1 SWAP2 SUB SWAP1 REVERT JUMPDEST PUSH1 0x4 DUP1 DUP2 GT ISZERO PUSH2 0x596 JUMPI PUSH2 0x595 PUSH2 0xE5C JUMP JUMPDEST JUMPDEST DUP2 PUSH1 0x4 DUP2 GT ISZERO PUSH2 0x5A9 JUMPI PUSH2 0x5A8 PUSH2 0xE5C JUMP JUMPDEST JUMPDEST SUB PUSH2 0x5E9 JUMPI PUSH1 0x40 MLOAD PUSH32 0x8C379A000000000000000000000000000000000000000000000000000000000 DUP2 MSTORE PUSH1 0x4 ADD PUSH2 0x5E0 SWAP1 PUSH2 0x1067 JUMP JUMPDEST PUSH1 0x40 MLOAD DUP1 SWAP2 SUB SWAP1 REVERT JUMPDEST JUMPDEST POP JUMP JUMPDEST PUSH1 0x0 DUP1 PUSH32 0x7FFFFFFFFFFFFFFFFFFFFFFFFFFFFFFF5D576E7357A4501DDFE92F46681B20A0 DUP4 PUSH1 0x0 SHR GT ISZERO PUSH2 0x628 JUMPI PUSH1 0x0 PUSH1 0x3 SWAP2 POP SWAP2 POP PUSH2 0x6F0 JUMP JUMPDEST PUSH1 0x1B DUP6 PUSH1 0xFF AND EQ ISZERO DUP1 ISZERO PUSH2 0x640 JUMPI POP PUSH1 0x1C DUP6 PUSH1 0xFF AND EQ ISZERO JUMPDEST ISZERO PUSH2 0x652 JUMPI PUSH1 0x0 PUSH1 0x4 SWAP2 POP SWAP2 POP PUSH2 0x6F0 JUMP JUMPDEST PUSH1 0x0 PUSH1 0x1 DUP8 DUP8 DUP8 DUP8 PUSH1 0x40 MLOAD PUSH1 0x0 DUP2 MSTORE PUSH1 0x20 ADD PUSH1 0x40 MSTORE PUSH1 0x40 MLOAD PUSH2 0x677 SWAP5 SWAP4 SWAP3 SWAP2 SWAP1 PUSH2 0x10A3 JUMP JUMPDEST PUSH1 0x20 PUSH1 0x40 MLOAD PUSH1 0x20 DUP2 SUB SWAP1 DUP1 DUP5 SUB SWAP1 DUP6 GAS STATICCALL ISZERO DUP1 ISZERO PUSH2 0x699 JUMPI RETURNDATASIZE PUSH1 0x0 DUP1 RETURNDATACOPY RETURNDATASIZE PUSH1 0x0 REVERT JUMPDEST POP POP POP PUSH1 0x20 PUSH1 0x40 MLOAD SUB MLOAD SWAP1 POP PUSH1 0x0 PUSH20 0xFFFFFFFFFFFFFFFFFFFFFFFFFFFFFFFFFFFFFFFF AND DUP2 PUSH20 0xFFFFFFFFFFFFFFFFFFFFFFFFFFFFFFFFFFFFFFFF AND SUB PUSH2 0x6E7 JUMPI PUSH1 0x0 PUSH1 0x1 SWAP3 POP SWAP3 POP POP PUSH2 0x6F0 JUMP JUMPDEST DUP1 PUSH1 0x0 SWAP3 POP SWAP3 POP POP JUMPDEST SWAP5 POP SWAP5 SWAP3 POP POP POP JUMP JUMPDEST PUSH1 0x0 DUP1 PUSH1 0x0 PUSH32 0x7FFFFFFFFFFFFFFFFFFFFFFFFFFFFFFFFFFFFFFFFFFFFFFFFFFFFFFFFFFFFFFF PUSH1 0x0 SHL DUP5 AND SWAP1 POP PUSH1 0x0 PUSH1 0x1B PUSH1 0xFF DUP7 PUSH1 0x0 SHR SWAP1 SHR PUSH2 0x73C SWAP2 SWAP1 PUSH2 0x10E8 JUMP JUMPDEST SWAP1 POP PUSH2 0x74A DUP8 DUP3 DUP9 DUP6 PUSH2 0x5ED JUMP JUMPDEST SWAP4 POP SWAP4 POP POP POP SWAP4 POP SWAP4 SWAP2 POP POP JUMP JUMPDEST PUSH1 0x0 PUSH1 0x40 MLOAD SWAP1 POP SWAP1 JUMP JUMPDEST PUSH1 0x0 DUP1 REVERT JUMPDEST PUSH1 0x0 DUP1 REVERT JUMPDEST PUSH1 0x0 DUP2 SWAP1 POP SWAP2 SWAP1 POP JUMP JUMPDEST PUSH2 0x77F DUP2 PUSH2 0x76C JUMP JUMPDEST DUP2 EQ PUSH2 0x78A JUMPI PUSH1 0x0 DUP1 REVERT JUMPDEST POP JUMP JUMPDEST PUSH1 0x0 DUP2 CALLDATALOAD SWAP1 POP PUSH2 0x79C DUP2 PUSH2 0x776 JUMP JUMPDEST SWAP3 SWAP2 POP POP JUMP JUMPDEST PUSH1 0x0 PUSH1 0x20 DUP3 DUP5 SUB SLT ISZERO PUSH2 0x7B8 JUMPI PUSH2 0x7B7 PUSH2 0x762 JUMP JUMPDEST JUMPDEST PUSH1 0x0 PUSH2 0x7C6 DUP5 DUP3 DUP6 ADD PUSH2 0x78D JUMP JUMPDEST SWAP2 POP POP SWAP3 SWAP2 POP POP JUMP JUMPDEST PUSH1 0x0 PUSH20 0xFFFFFFFFFFFFFFFFFFFFFFFFFFFFFFFFFFFFFFFF DUP3 AND SWAP1 POP SWAP2 SWAP1 POP JUMP JUMPDEST PUSH1 0x0 PUSH2 0x7FA DUP3 PUSH2 0x7CF JUMP JUMPDEST SWAP1 POP SWAP2 SWAP1 POP JUMP JUMPDEST PUSH2 0x80A DUP2 PUSH2 0x7EF JUMP JUMPDEST DUP3 MSTORE POP POP JUMP JUMPDEST PUSH1 0x0 PUSH1 0x20 DUP3 ADD SWAP1 POP PUSH2 0x825 PUSH1 0x0 DUP4 ADD DUP5 PUSH2 0x801 JUMP JUMPDEST SWAP3 SWAP2 POP POP JUMP JUMPDEST PUSH2 0x834 DUP2 PUSH2 0x7EF JUMP JUMPDEST DUP2 EQ PUSH2 0x83F JUMPI PUSH1 0x0 DUP1 REVERT JUMPDEST POP JUMP JUMPDEST PUSH1 0x0 DUP2 CALLDATALOAD SWAP1 POP PUSH2 0x851 DUP2 PUSH2 0x82B JUMP JUMPDEST SWAP3 SWAP2 POP POP JUMP JUMPDEST PUSH1 0x0 DUP1 PUSH1 0x40 DUP4 DUP6 SUB SLT ISZERO PUSH2 0x86E JUMPI PUSH2 0x86D PUSH2 0x762 JUMP JUMPDEST JUMPDEST PUSH1 0x0 PUSH2 0x87C DUP6 DUP3 DUP7 ADD PUSH2 0x842 JUMP JUMPDEST SWAP3 POP POP PUSH1 0x20 PUSH2 0x88D DUP6 DUP3 DUP7 ADD PUSH2 0x78D JUMP JUMPDEST SWAP2 POP POP SWAP3 POP SWAP3 SWAP1 POP JUMP JUMPDEST PUSH1 0x0 DUP2 SWAP1 POP SWAP2 SWAP1 POP JUMP JUMPDEST PUSH2 0x8AA DUP2 PUSH2 0x897 JUMP JUMPDEST DUP3 MSTORE POP POP JUMP JUMPDEST PUSH1 0x0 PUSH1 0x20 DUP3 ADD SWAP1 POP PUSH2 0x8C5 PUSH1 0x0 DUP4 ADD DUP5 PUSH2 0x8A1 JUMP JUMPDEST SWAP3 SWAP2 POP POP JUMP JUMPDEST PUSH1 0x0 DUP1 REVERT JUMPDEST PUSH1 0x0 PUSH1 0x1F NOT PUSH1 0x1F DUP4 ADD AND SWAP1 POP SWAP2 SWAP1 POP JUMP JUMPDEST PUSH32 0x4E487B7100000000000000000000000000000000000000000000000000000000 PUSH1 0x0 MSTORE PUSH1 0x41 PUSH1 0x4 MSTORE PUSH1 0x24 PUSH1 0x0 REVERT JUMPDEST PUSH2 0x919 DUP3 PUSH2 0x8D0 JUMP JUMPDEST DUP2 ADD DUP2 DUP2 LT PUSH8 0xFFFFFFFFFFFFFFFF DUP3 GT OR ISZERO PUSH2 0x938 JUMPI PUSH2 0x937 PUSH2 0x8E1 JUMP JUMPDEST JUMPDEST DUP1 PUSH1 0x40 MSTORE POP POP POP JUMP JUMPDEST PUSH1 0x0 PUSH2 0x94B PUSH2 0x758 JUMP JUMPDEST SWAP1 POP PUSH2 0x957 DUP3 DUP3 PUSH2 0x910 JUMP JUMPDEST SWAP2 SWAP1 POP JUMP JUMPDEST PUSH1 0x0 PUSH8 0xFFFFFFFFFFFFFFFF DUP3 GT ISZERO PUSH2 0x977 JUMPI PUSH2 0x976 PUSH2 0x8E1 JUMP JUMPDEST JUMPDEST PUSH1 0x20 DUP3 MUL SWAP1 POP SWAP2 SWAP1 POP JUMP JUMPDEST PUSH1 0x0 DUP1 REVERT JUMPDEST PUSH1 0x0 DUP1 REVERT JUMPDEST PUSH1 0x0 PUSH8 0xFFFFFFFFFFFFFFFF DUP3 GT ISZERO PUSH2 0x9A7 JUMPI PUSH2 0x9A6 PUSH2 0x8E1 JUMP JUMPDEST JUMPDEST PUSH2 0x9B0 DUP3 PUSH2 0x8D0 JUMP JUMPDEST SWAP1 POP PUSH1 0x20 DUP2 ADD SWAP1 POP SWAP2 SWAP1 POP JUMP JUMPDEST DUP3 DUP2 DUP4 CALLDATACOPY PUSH1 0x0 DUP4 DUP4 ADD MSTORE POP POP POP JUMP JUMPDEST PUSH1 0x0 PUSH2 0x9DF PUSH2 0x9DA DUP5 PUSH2 0x98C JUMP JUMPDEST PUSH2 0x941 JUMP JUMPDEST SWAP1 POP DUP3 DUP2 MSTORE PUSH1 0x20 DUP2 ADD DUP5 DUP5 DUP5 ADD GT ISZERO PUSH2 0x9FB JUMPI PUSH2 0x9FA PUSH2 0x987 JUMP JUMPDEST JUMPDEST PUSH2 0xA06 DUP5 DUP3 DUP6 PUSH2 0x9BD JUMP JUMPDEST POP SWAP4 SWAP3 POP POP POP JUMP JUMPDEST PUSH1 0x0 DUP3 PUSH1 0x1F DUP4 ADD SLT PUSH2 0xA23 JUMPI PUSH2 0xA22 PUSH2 0x8CB JUMP JUMPDEST JUMPDEST DUP2 CALLDATALOAD PUSH2 0xA33 DUP5 DUP3 PUSH1 0x20 DUP7 ADD PUSH2 0x9CC JUMP JUMPDEST SWAP2 POP POP SWAP3 SWAP2 POP POP JUMP JUMPDEST PUSH1 0x0 PUSH2 0xA4F PUSH2 0xA4A DUP5 PUSH2 0x95C JUMP JUMPDEST PUSH2 0x941 JUMP JUMPDEST SWAP1 POP DUP1 PUSH1 0x20 DUP5 MUL DUP4 ADD DUP6 DUP2 GT ISZERO PUSH2 0xA69 JUMPI PUSH2 0xA68 PUSH2 0x982 JUMP JUMPDEST JUMPDEST DUP4 JUMPDEST DUP2 DUP2 LT ISZERO PUSH2 0xAB0 JUMPI DUP1 CALLDATALOAD PUSH8 0xFFFFFFFFFFFFFFFF DUP2 GT ISZERO PUSH2 0xA8E JUMPI PUSH2 0xA8D PUSH2 0x8CB JUMP JUMPDEST JUMPDEST DUP1 DUP7 ADD PUSH2 0xA9B DUP10 DUP3 PUSH2 0xA0E JUMP JUMPDEST DUP6 MSTORE PUSH1 0x20 DUP6 ADD SWAP5 POP POP POP PUSH1 0x20 DUP2 ADD SWAP1 POP PUSH2 0xA6B JUMP JUMPDEST POP POP POP SWAP4 SWAP3 POP POP POP JUMP JUMPDEST PUSH1 0x0 DUP3 PUSH1 0x1F DUP4 ADD SLT PUSH2 0xACF JUMPI PUSH2 0xACE PUSH2 0x8CB JUMP JUMPDEST JUMPDEST PUSH1 0x2 PUSH2 0xADC DUP5 DUP3 DUP6 PUSH2 0xA3C JUMP JUMPDEST SWAP2 POP POP SWAP3 SWAP2 POP POP JUMP JUMPDEST PUSH1 0x0 DUP1 PUSH1 0x0 PUSH1 0x60 DUP5 DUP7 SUB SLT ISZERO PUSH2 0xAFE JUMPI PUSH2 0xAFD PUSH2 0x762 JUMP JUMPDEST JUMPDEST PUSH1 0x0 PUSH2 0xB0C DUP7 DUP3 DUP8 ADD PUSH2 0x842 JUMP JUMPDEST SWAP4 POP POP PUSH1 0x20 PUSH2 0xB1D DUP7 DUP3 DUP8 ADD PUSH2 0x78D JUMP JUMPDEST SWAP3 POP POP PUSH1 0x40 DUP5 ADD CALLDATALOAD PUSH8 0xFFFFFFFFFFFFFFFF DUP2 GT ISZERO PUSH2 0xB3E JUMPI PUSH2 0xB3D PUSH2 0x767 JUMP JUMPDEST JUMPDEST PUSH2 0xB4A DUP7 DUP3 DUP8 ADD PUSH2 0xABA JUMP JUMPDEST SWAP2 POP POP SWAP3 POP SWAP3 POP SWAP3 JUMP JUMPDEST PUSH1 0x0 DUP2 PUSH1 0x60 SHL SWAP1 POP SWAP2 SWAP1 POP JUMP JUMPDEST PUSH1 0x0 PUSH2 0xB6C DUP3 PUSH2 0xB54 JUMP JUMPDEST SWAP1 POP SWAP2 SWAP1 POP JUMP JUMPDEST PUSH1 0x0 PUSH2 0xB7E DUP3 PUSH2 0xB61 JUMP JUMPDEST SWAP1 POP SWAP2 SWAP1 POP JUMP JUMPDEST PUSH2 0xB96 PUSH2 0xB91 DUP3 PUSH2 0x7EF JUMP JUMPDEST PUSH2 0xB73 JUMP JUMPDEST DUP3 MSTORE POP POP JUMP JUMPDEST PUSH1 0x0 DUP2 SWAP1 POP SWAP2 SWAP1 POP JUMP JUMPDEST PUSH2 0xBB7 PUSH2 0xBB2 DUP3 PUSH2 0x76C JUMP JUMPDEST PUSH2 0xB9C JUMP JUMPDEST DUP3 MSTORE POP POP JUMP JUMPDEST PUSH1 0x0 PUSH2 0xBC9 DUP3 DUP6 PUSH2 0xB85 JUMP JUMPDEST PUSH1 0x14 DUP3 ADD SWAP2 POP PUSH2 0xBD9 DUP3 DUP5 PUSH2 0xBA6 JUMP JUMPDEST PUSH1 0x20 DUP3 ADD SWAP2 POP DUP2 SWAP1 POP SWAP4 SWAP3 POP POP POP JUMP JUMPDEST PUSH1 0x0 DUP3 DUP3 MSTORE PUSH1 0x20 DUP3 ADD SWAP1 POP SWAP3 SWAP2 POP POP JUMP JUMPDEST PUSH32 0x696E76616C696420736967000000000000000000000000000000000000000000 PUSH1 0x0 DUP3 ADD MSTORE POP JUMP JUMPDEST PUSH1 0x0 PUSH2 0xC30 PUSH1 0xB DUP4 PUSH2 0xBE9 JUMP JUMPDEST SWAP2 POP PUSH2 0xC3B DUP3 PUSH2 0xBFA JUMP JUMPDEST PUSH1 0x20 DUP3 ADD SWAP1 POP SWAP2 SWAP1 POP JUMP JUMPDEST PUSH1 0x0 PUSH1 0x20 DUP3 ADD SWAP1 POP DUP2 DUP2 SUB PUSH1 0x0 DUP4 ADD MSTORE PUSH2 0xC5F DUP2 PUSH2 0xC23 JUMP JUMPDEST SWAP1 POP SWAP2 SWAP1 POP JUMP JUMPDEST PUSH1 0x0 DUP2 SWAP1 POP SWAP3 SWAP2 POP POP JUMP JUMPDEST POP JUMP JUMPDEST PUSH1 0x0 PUSH2 0xC81 PUSH1 0x0 DUP4 PUSH2 0xC66 JUMP JUMPDEST SWAP2 POP PUSH2 0xC8C DUP3 PUSH2 0xC71 JUMP JUMPDEST PUSH1 0x0 DUP3 ADD SWAP1 POP SWAP2 SWAP1 POP JUMP JUMPDEST PUSH1 0x0 PUSH2 0xCA2 DUP3 PUSH2 0xC74 JUMP JUMPDEST SWAP2 POP DUP2 SWAP1 POP SWAP2 SWAP1 POP JUMP JUMPDEST PUSH32 0x4661696C656420746F2073656E64204574686572000000000000000000000000 PUSH1 0x0 DUP3 ADD MSTORE POP JUMP JUMPDEST PUSH1 0x0 PUSH2 0xCE2 PUSH1 0x14 DUP4 PUSH2 0xBE9 JUMP JUMPDEST SWAP2 POP PUSH2 0xCED DUP3 PUSH2 0xCAC JUMP JUMPDEST PUSH1 0x20 DUP3 ADD SWAP1 POP SWAP2 SWAP1 POP JUMP JUMPDEST PUSH1 0x0 PUSH1 0x20 DUP3 ADD SWAP1 POP DUP2 DUP2 SUB PUSH1 0x0 DUP4 ADD MSTORE PUSH2 0xD11 DUP2 PUSH2 0xCD5 JUMP JUMPDEST SWAP1 POP SWAP2 SWAP1 POP JUMP JUMPDEST PUSH32 0x4E487B7100000000000000000000000000000000000000000000000000000000 PUSH1 0x0 MSTORE PUSH1 0x32 PUSH1 0x4 MSTORE PUSH1 0x24 PUSH1 0x0 REVERT JUMPDEST PUSH32 0x4E487B7100000000000000000000000000000000000000000000000000000000 PUSH1 0x0 MSTORE PUSH1 0x11 PUSH1 0x4 MSTORE PUSH1 0x24 PUSH1 0x0 REVERT JUMPDEST PUSH1 0x0 PUSH2 0xD81 DUP3 PUSH2 0x76C JUMP JUMPDEST SWAP2 POP PUSH32 0xFFFFFFFFFFFFFFFFFFFFFFFFFFFFFFFFFFFFFFFFFFFFFFFFFFFFFFFFFFFFFFFF DUP3 SUB PUSH2 0xDB3 JUMPI PUSH2 0xDB2 PUSH2 0xD47 JUMP JUMPDEST JUMPDEST PUSH1 0x1 DUP3 ADD SWAP1 POP SWAP2 SWAP1 POP JUMP JUMPDEST PUSH1 0x0 DUP2 SWAP1 POP SWAP3 SWAP2 POP POP JUMP JUMPDEST PUSH32 0x19457468657265756D205369676E6564204D6573736167653A0A333200000000 PUSH1 0x0 DUP3 ADD MSTORE POP JUMP JUMPDEST PUSH1 0x0 PUSH2 0xDFF PUSH1 0x1C DUP4 PUSH2 0xDBE JUMP JUMPDEST SWAP2 POP PUSH2 0xE0A DUP3 PUSH2 0xDC9 JUMP JUMPDEST PUSH1 0x1C DUP3 ADD SWAP1 POP SWAP2 SWAP1 POP JUMP JUMPDEST PUSH1 0x0 DUP2 SWAP1 POP SWAP2 SWAP1 POP JUMP JUMPDEST PUSH2 0xE30 PUSH2 0xE2B DUP3 PUSH2 0x897 JUMP JUMPDEST PUSH2 0xE15 JUMP JUMPDEST DUP3 MSTORE POP POP JUMP JUMPDEST PUSH1 0x0 PUSH2 0xE41 DUP3 PUSH2 0xDF2 JUMP JUMPDEST SWAP2 POP PUSH2 0xE4D DUP3 DUP5 PUSH2 0xE1F JUMP JUMPDEST PUSH1 0x20 DUP3 ADD SWAP2 POP DUP2 SWAP1 POP SWAP3 SWAP2 POP POP JUMP JUMPDEST PUSH32 0x4E487B7100000000000000000000000000000000000000000000000000000000 PUSH1 0x0 MSTORE PUSH1 0x21 PUSH1 0x4 MSTORE PUSH1 0x24 PUSH1 0x0 REVERT JUMPDEST PUSH32 0x45434453413A20696E76616C6964207369676E61747572650000000000000000 PUSH1 0x0 DUP3 ADD MSTORE POP JUMP JUMPDEST PUSH1 0x0 PUSH2 0xEC1 PUSH1 0x18 DUP4 PUSH2 0xBE9 JUMP JUMPDEST SWAP2 POP PUSH2 0xECC DUP3 PUSH2 0xE8B JUMP JUMPDEST PUSH1 0x20 DUP3 ADD SWAP1 POP SWAP2 SWAP1 POP JUMP JUMPDEST PUSH1 0x0 PUSH1 0x20 DUP3 ADD SWAP1 POP DUP2 DUP2 SUB PUSH1 0x0 DUP4 ADD MSTORE PUSH2 0xEF0 DUP2 PUSH2 0xEB4 JUMP JUMPDEST SWAP1 POP SWAP2 SWAP1 POP JUMP JUMPDEST PUSH32 0x45434453413A20696E76616C6964207369676E6174757265206C656E67746800 PUSH1 0x0 DUP3 ADD MSTORE POP JUMP JUMPDEST PUSH1 0x0 PUSH2 0xF2D PUSH1 0x1F DUP4 PUSH2 0xBE9 JUMP JUMPDEST SWAP2 POP PUSH2 0xF38 DUP3 PUSH2 0xEF7 JUMP JUMPDEST PUSH1 0x20 DUP3 ADD SWAP1 POP SWAP2 SWAP1 POP JUMP JUMPDEST PUSH1 0x0 PUSH1 0x20 DUP3 ADD SWAP1 POP DUP2 DUP2 SUB PUSH1 0x0 DUP4 ADD MSTORE PUSH2 0xF5C DUP2 PUSH2 0xF20 JUMP JUMPDEST SWAP1 POP SWAP2 SWAP1 POP JUMP JUMPDEST PUSH32 0x45434453413A20696E76616C6964207369676E6174757265202773272076616C PUSH1 0x0 DUP3 ADD MSTORE PUSH32 0x7565000000000000000000000000000000000000000000000000000000000000 PUSH1 0x20 DUP3 ADD MSTORE POP JUMP JUMPDEST PUSH1 0x0 PUSH2 0xFBF PUSH1 0x22 DUP4 PUSH2 0xBE9 JUMP JUMPDEST SWAP2 POP PUSH2 0xFCA DUP3 PUSH2 0xF63 JUMP JUMPDEST PUSH1 0x40 DUP3 ADD SWAP1 POP SWAP2 SWAP1 POP JUMP JUMPDEST PUSH1 0x0 PUSH1 0x20 DUP3 ADD SWAP1 POP DUP2 DUP2 SUB PUSH1 0x0 DUP4 ADD MSTORE PUSH2 0xFEE DUP2 PUSH2 0xFB2 JUMP JUMPDEST SWAP1 POP SWAP2 SWAP1 POP JUMP JUMPDEST PUSH32 0x45434453413A20696E76616C6964207369676E6174757265202776272076616C PUSH1 0x0 DUP3 ADD MSTORE PUSH32 0x7565000000000000000000000000000000000000000000000000000000000000 PUSH1 0x20 DUP3 ADD MSTORE POP JUMP JUMPDEST PUSH1 0x0 PUSH2 0x1051 PUSH1 0x22 DUP4 PUSH2 0xBE9 JUMP JUMPDEST SWAP2 POP PUSH2 0x105C DUP3 PUSH2 0xFF5 JUMP JUMPDEST PUSH1 0x40 DUP3 ADD SWAP1 POP SWAP2 SWAP1 POP JUMP JUMPDEST PUSH1 0x0 PUSH1 0x20 DUP3 ADD SWAP1 POP DUP2 DUP2 SUB PUSH1 0x0 DUP4 ADD MSTORE PUSH2 0x1080 DUP2 PUSH2 0x1044 JUMP JUMPDEST SWAP1 POP SWAP2 SWAP1 POP JUMP JUMPDEST PUSH1 0x0 PUSH1 0xFF DUP3 AND SWAP1 POP SWAP2 SWAP1 POP JUMP JUMPDEST PUSH2 0x109D DUP2 PUSH2 0x1087 JUMP JUMPDEST DUP3 MSTORE POP POP JUMP JUMPDEST PUSH1 0x0 PUSH1 0x80 DUP3 ADD SWAP1 POP PUSH2 0x10B8 PUSH1 0x0 DUP4 ADD DUP8 PUSH2 0x8A1 JUMP JUMPDEST PUSH2 0x10C5 PUSH1 0x20 DUP4 ADD DUP7 PUSH2 0x1094 JUMP JUMPDEST PUSH2 0x10D2 PUSH1 0x40 DUP4 ADD DUP6 PUSH2 0x8A1 JUMP JUMPDEST PUSH2 0x10DF PUSH1 0x60 DUP4 ADD DUP5 PUSH2 0x8A1 JUMP JUMPDEST SWAP6 SWAP5 POP POP POP POP POP JUMP JUMPDEST PUSH1 0x0 PUSH2 0x10F3 DUP3 PUSH2 0x76C JUMP JUMPDEST SWAP2 POP PUSH2 0x10FE DUP4 PUSH2 0x76C JUMP JUMPDEST SWAP3 POP DUP3 DUP3 ADD SWAP1 POP DUP1 DUP3 GT ISZERO PUSH2 0x1116 JUMPI PUSH2 0x1115 PUSH2 0xD47 JUMP JUMPDEST JUMPDEST SWAP3 SWAP2 POP POP JUMP INVALID LOG2 PUSH5 0x6970667358 0x22 SLT KECCAK256 0xCF PUSH26 0x2AA66877CB3622DC58AFA61899E78B0030799B4C8B86C6357FD0 RETURNDATASIZE 0x27 0xDB SWAP15 PUSH5 0x736F6C6343 STOP ADDMOD GT STOP CALLER "
		},
		"gasEstimates": {
			"creation": {
				"codeDepositCost": "886800",
				"executionCost": "infinite",
				"totalCost": "infinite"
			},
			"external": {
				"deposit()": "142",
				"getTxHash(address,uint256)": "infinite",
				"owners(uint256)": "2783",
				"transfer(address,uint256,bytes[2])": "infinite"
			},
			"internal": {
				"_checkSigs(bytes memory[2] memory,bytes32)": "infinite"
			}
		},
		"methodIdentifiers": {
			"deposit()": "d0e30db0",
			"getTxHash(address,uint256)": "9a4b740b",
			"owners(uint256)": "025e7c27",
			"transfer(address,uint256,bytes[2])": "ffb485b8"
		}
	},
	"abi": [
		{
			"inputs": [
				{
					"internalType": "address[2]",
					"name": "_owners",
					"type": "address[2]"
				}
			],
			"stateMutability": "payable",
			"type": "constructor"
		},
		{
			"inputs": [],
			"name": "deposit",
			"outputs": [],
			"stateMutability": "payable",
			"type": "function"
		},
		{
			"inputs": [
				{
					"internalType": "address",
					"name": "_to",
					"type": "address"
				},
				{
					"internalType": "uint256",
					"name": "_amount",
					"type": "uint256"
				}
			],
			"name": "getTxHash",
			"outputs": [
				{
					"internalType": "bytes32",
					"name": "",
					"type": "bytes32"
				}
			],
			"stateMutability": "view",
			"type": "function"
		},
		{
			"inputs": [
				{
					"internalType": "uint256",
					"name": "",
					"type": "uint256"
				}
			],
			"name": "owners",
			"outputs": [
				{
					"internalType": "address",
					"name": "",
					"type": "address"
				}
			],
			"stateMutability": "view",
			"type": "function"
		},
		{
			"inputs": [
				{
					"internalType": "address",
					"name": "_to",
					"type": "address"
				},
				{
					"internalType": "uint256",
					"name": "_amount",
					"type": "uint256"
				},
				{
					"internalType": "bytes[2]",
					"name": "_sigs",
					"type": "bytes[2]"
				}
			],
			"name": "transfer",
			"outputs": [],
			"stateMutability": "nonpayable",
			"type": "function"
		}
	]
}