{
	"data": {
		"bytecode": {
			"linkReferences": {},
			"object": "608060405260008060006101000a81548160ff02191690831515021790555034801561002a57600080fd5b506102a08061003a6000396000f3fe608060405234801561001057600080fd5b50600436106100415760003560e01c80631627905514610046578063834d81851461007657806395f11c0e14610080575b600080fd5b610060600480360381019061005b919061018a565b61009e565b60405161006d91906101d2565b60405180910390f35b61007e6100b1565b005b610088610116565b60405161009591906101d2565b60405180910390f35b600080823b905060008111915050919050565b6100ba3361009e565b156100fa576040517f08c379a00000000000000000000000000000000000000000000000000000000081526004016100f19061024a565b60405180910390fd5b60016000806101000a81548160ff021916908315150217905550565b60008054906101000a900460ff1681565b600080fd5b600073ffffffffffffffffffffffffffffffffffffffff82169050919050565b60006101578261012c565b9050919050565b6101678161014c565b811461017257600080fd5b50565b6000813590506101848161015e565b92915050565b6000602082840312156101a05761019f610127565b5b60006101ae84828501610175565b91505092915050565b60008115159050919050565b6101cc816101b7565b82525050565b60006020820190506101e760008301846101c3565b92915050565b600082825260208201905092915050565b7f6e6f20636f6e747261637420616c6c6f77656400000000000000000000000000600082015250565b60006102346013836101ed565b915061023f826101fe565b602082019050919050565b6000602082019050818103600083015261026381610227565b905091905056fea2646970667358221220154d50ac60fa15175ea1ca4f6f4036f56a2587fef605fba0e4229bf3f744281164736f6c63430008110033",
			"opcodes": "PUSH1 0x80 PUSH1 0x40 MSTORE PUSH1 0x0 DUP1 PUSH1 0x0 PUSH2 0x100 EXP DUP2 SLOAD DUP2 PUSH1 0xFF MUL NOT AND SWAP1 DUP4 ISZERO ISZERO MUL OR SWAP1 SSTORE POP CALLVALUE DUP1 ISZERO PUSH2 0x2A JUMPI PUSH1 0x0 DUP1 REVERT JUMPDEST POP PUSH2 0x2A0 DUP1 PUSH2 0x3A PUSH1 0x0 CODECOPY PUSH1 0x0 RETURN INVALID PUSH1 0x80 PUSH1 0x40 MSTORE CALLVALUE DUP1 ISZERO PUSH2 0x10 JUMPI PUSH1 0x0 DUP1 REVERT JUMPDEST POP PUSH1 0x4 CALLDATASIZE LT PUSH2 0x41 JUMPI PUSH1 0x0 CALLDATALOAD PUSH1 0xE0 SHR DUP1 PUSH4 0x16279055 EQ PUSH2 0x46 JUMPI DUP1 PUSH4 0x834D8185 EQ PUSH2 0x76 JUMPI DUP1 PUSH4 0x95F11C0E EQ PUSH2 0x80 JUMPI JUMPDEST PUSH1 0x0 DUP1 REVERT JUMPDEST PUSH2 0x60 PUSH1 0x4 DUP1 CALLDATASIZE SUB DUP2 ADD SWAP1 PUSH2 0x5B SWAP2 SWAP1 PUSH2 0x18A JUMP JUMPDEST PUSH2 0x9E JUMP JUMPDEST PUSH1 0x40 MLOAD PUSH2 0x6D SWAP2 SWAP1 PUSH2 0x1D2 JUMP JUMPDEST PUSH1 0x40 MLOAD DUP1 SWAP2 SUB SWAP1 RETURN JUMPDEST PUSH2 0x7E PUSH2 0xB1 JUMP JUMPDEST STOP JUMPDEST PUSH2 0x88 PUSH2 0x116 JUMP JUMPDEST PUSH1 0x40 MLOAD PUSH2 0x95 SWAP2 SWAP1 PUSH2 0x1D2 JUMP JUMPDEST PUSH1 0x40 MLOAD DUP1 SWAP2 SUB SWAP1 RETURN JUMPDEST PUSH1 0x0 DUP1 DUP3 EXTCODESIZE SWAP1 POP PUSH1 0x0 DUP2 GT SWAP2 POP POP SWAP2 SWAP1 POP JUMP JUMPDEST PUSH2 0xBA CALLER PUSH2 0x9E JUMP JUMPDEST ISZERO PUSH2 0xFA JUMPI PUSH1 0x40 MLOAD PUSH32 0x8C379A000000000000000000000000000000000000000000000000000000000 DUP2 MSTORE PUSH1 0x4 ADD PUSH2 0xF1 SWAP1 PUSH2 0x24A JUMP JUMPDEST PUSH1 0x40 MLOAD DUP1 SWAP2 SUB SWAP1 REVERT JUMPDEST PUSH1 0x1 PUSH1 0x0 DUP1 PUSH2 0x100 EXP DUP2 SLOAD DUP2 PUSH1 0xFF MUL NOT AND SWAP1 DUP4 ISZERO ISZERO MUL OR SWAP1 SSTORE POP JUMP JUMPDEST PUSH1 0x0 DUP1 SLOAD SWAP1 PUSH2 0x100 EXP SWAP1 DIV PUSH1 0xFF AND DUP2 JUMP JUMPDEST PUSH1 0x0 DUP1 REVERT JUMPDEST PUSH1 0x0 PUSH20 0xFFFFFFFFFFFFFFFFFFFFFFFFFFFFFFFFFFFFFFFF DUP3 AND SWAP1 POP SWAP2 SWAP1 POP JUMP JUMPDEST PUSH1 0x0 PUSH2 0x157 DUP3 PUSH2 0x12C JUMP JUMPDEST SWAP1 POP SWAP2 SWAP1 POP JUMP JUMPDEST PUSH2 0x167 DUP2 PUSH2 0x14C JUMP JUMPDEST DUP2 EQ PUSH2 0x172 JUMPI PUSH1 0x0 DUP1 REVERT JUMPDEST POP JUMP JUMPDEST PUSH1 0x0 DUP2 CALLDATALOAD SWAP1 POP PUSH2 0x184 DUP2 PUSH2 0x15E JUMP JUMPDEST SWAP3 SWAP2 POP POP JUMP JUMPDEST PUSH1 0x0 PUSH1 0x20 DUP3 DUP5 SUB SLT ISZERO PUSH2 0x1A0 JUMPI PUSH2 0x19F PUSH2 0x127 JUMP JUMPDEST JUMPDEST PUSH1 0x0 PUSH2 0x1AE DUP5 DUP3 DUP6 ADD PUSH2 0x175 JUMP JUMPDEST SWAP2 POP POP SWAP3 SWAP2 POP POP JUMP JUMPDEST PUSH1 0x0 DUP2 ISZERO ISZERO SWAP1 POP SWAP2 SWAP1 POP JUMP JUMPDEST PUSH2 0x1CC DUP2 PUSH2 0x1B7 JUMP JUMPDEST DUP3 MSTORE POP POP JUMP JUMPDEST PUSH1 0x0 PUSH1 0x20 DUP3 ADD SWAP1 POP PUSH2 0x1E7 PUSH1 0x0 DUP4 ADD DUP5 PUSH2 0x1C3 JUMP JUMPDEST SWAP3 SWAP2 POP POP JUMP JUMPDEST PUSH1 0x0 DUP3 DUP3 MSTORE PUSH1 0x20 DUP3 ADD SWAP1 POP SWAP3 SWAP2 POP POP JUMP JUMPDEST PUSH32 0x6E6F20636F6E747261637420616C6C6F77656400000000000000000000000000 PUSH1 0x0 DUP3 ADD MSTORE POP JUMP JUMPDEST PUSH1 0x0 PUSH2 0x234 PUSH1 0x13 DUP4 PUSH2 0x1ED JUMP JUMPDEST SWAP2 POP PUSH2 0x23F DUP3 PUSH2 0x1FE JUMP JUMPDEST PUSH1 0x20 DUP3 ADD SWAP1 POP SWAP2 SWAP1 POP JUMP JUMPDEST PUSH1 0x0 PUSH1 0x20 DUP3 ADD SWAP1 POP DUP2 DUP2 SUB PUSH1 0x0 DUP4 ADD MSTORE PUSH2 0x263 DUP2 PUSH2 0x227 JUMP JUMPDEST SWAP1 POP SWAP2 SWAP1 POP JUMP INVALID LOG2 PUSH5 0x6970667358 0x22 SLT KECCAK256 ISZERO 0x4D POP 0xAC PUSH1 0xFA ISZERO OR 0x5E LOG1 0xCA 0x4F PUSH16 0x4036F56A2587FEF605FBA0E4229BF3F7 DIFFICULTY 0x28 GT PUSH5 0x736F6C6343 STOP ADDMOD GT STOP CALLER "
		},
		"gasEstimates": {
			"creation": {
				"codeDepositCost": "134400",
				"executionCost": "24444",
				"totalCost": "158844"
			},
			"external": {
				"isContract(address)": "3254",
				"protected()": "27092",
				"pwned()": "2490"
			}
		},
		"methodIdentifiers": {
			"isContract(address)": "16279055",
			"protected()": "834d8185",
			"pwned()": "95f11c0e"
		}
	},
	"abi": [
		{
			"inputs": [
				{
					"internalType": "address",
					"name": "account",
					"type": "address"
				}
			],
			"name": "isContract",
			"outputs": [
				{
					"internalType": "bool",
					"name": "",
					"type": "bool"
				}
			],
			"stateMutability": "view",
			"type": "function"
		},
		{
			"inputs": [],
			"name": "protected",
			"outputs": [],
			"stateMutability": "nonpayable",
			"type": "function"
		},
		{
			"inputs": [],
			"name": "pwned",
			"outputs": [
				{
					"internalType": "bool",
					"name": "",
					"type": "bool"
				}
			],
			"stateMutability": "view",
			"type": "function"
		}
	]
}